:020000040800F2
:10000000000002208B02000885020008850200081B
:100010008502000885020008850200080000000033
:100020000000000000000000000000008502000841
:100030008502000800000000850200088502000813
:100040008502000885020008850200088502000874
:100050008502000885020008850200088502000864
:100060008502000885020008850200088502000854
:100070008502000885020008850200088502000844
:100080008502000885020008850200088502000834
:100090008502000885020008850200088502000824
:1000A0008502000885020008850200088502000814
:1000B0008502000885020008850200088502000804
:1000C00085020008850200088502000885020008F4
:1000D00085020008850200088502000885020008E4
:1000E00085020008850200088502000885020008D4
:1000F00085020008850200088502000885020008C4
:1001000085020008850200088502000885020008B3
:1001100085020008850200088502000885020008A3
:100120008502000885020008850200088502000893
:100130008502000885020008850200088502000883
:100140008502000885020008850200088502000873
:100150008502000885020008850200088502000863
:100160008502000885020008850200088502000853
:100170008502000885020008850200088502000843
:10018000850200088502000880B584B000AF264BC8
:10019000FB60264BBB60264B7B60FB681B683B60AB
:1001A0003B6843F008033B60FB683A681A60BB6831
:1001B0001B6823F04072BB681A60BB681B6843F081
:1001C0008072BB681A607B681B6823F480527B686E
:1001D0001A604FF47A7000F02DF87B681B6823F4E6
:1001E00080527B681A607B681B6843F400527B680E
:1001F0001A607B681B6843F480427B681A607B68E6
:100200001B6843F480527B681A604FF47A7000F0E8
:1002100011F87B681B6823F480527B681A604FF4E6
:100220007A7000F007F8EAE730380240000C02402C
:10023000140C024080B483B000AF786017E0104B1C
:100240001B6845F207225A600D4B1B6800229A601A
:100250000B4B1B6805221A6000BF094B1B681B680B
:1002600003F48033002BF8D07B68013B7B607B6814
:10027000002BE4D100BF00BF0C37BD4680BC7047E7
:100280000000002080B400AFFEE780B586B000AF6C
:100290001B4A1C4BD31A7B601A4B7B611A4B3B6188
:1002A0000023FB600AE03A69531C3B617B69591CDF
:1002B000796112781A70FB680133FB60FA687B6819
:1002C0009A42F0D3114A124BD31A9B107B60104B09
:1002D0001B687B610023BB6007E07B695A1C7A6165
:1002E00000221A70BB680133BB60BA687B689A420F
:1002F000F3D3FFF749FF00BF1837BD4680BD00BFED
:100300000C0000200000002014030008140000204E
:040310000C000020BD
:0C03140010E000E00A0000000A000000F9
:040000050800028B62
:00000001FF
